{
  "abi": [
    {
      "inputs": [],
      "name": "decreament",
      "outputs": [],
      "stateMutability": "nonpayable",
      "type": "function"
    },
    {
      "inputs": [],
      "name": "getNumber",
      "outputs": [
        {
          "internalType": "uint256",
          "name": "",
          "type": "uint256"
        }
      ],
      "stateMutability": "view",
      "type": "function"
    },
    {
      "inputs": [],
      "name": "increment",
      "outputs": [],
      "stateMutability": "nonpayable",
      "type": "function"
    },
    {
      "inputs": [],
      "name": "number",
      "outputs": [
        {
          "internalType": "uint256",
          "name": "",
          "type": "uint256"
        }
      ],
      "stateMutability": "view",
      "type": "function"
    },
    {
      "inputs": [
        {
          "internalType": "uint256",
          "name": "newNumber",
          "type": "uint256"
        }
      ],
      "name": "setNumber",
      "outputs": [],
      "stateMutability": "nonpayable",
      "type": "function"
    }
  ],
  "bytecode": {
    "object": "0x608060405234801561001057600080fd5b5061015e806100206000396000f3fe608060405234801561001057600080fd5b50600436106100575760003560e01c80633fb5c1cb1461005c57806342541b8b146100715780638381f58a14610079578063d09de08a14610094578063f2c9ecd81461009c575b600080fd5b61006f61006a3660046100c9565b600055565b005b61006f6100a4565b61008260005481565b60405190815260200160405180910390f35b61006f6100ba565b600054610082565b6000805490806100b3836100f8565b9190505550565b6000805490806100b38361010f565b6000602082840312156100db57600080fd5b5035919050565b634e487b7160e01b600052601160045260246000fd5b600081610107576101076100e2565b506000190190565b600060018201610121576101216100e2565b506001019056fea2646970667358221220e99253235e2dcaf13b74bef1ad7c4096bc86a52099f044229cb66fad8496a55264736f6c63430008110033",
    "linkReferences": {}
  },
  "methodIdentifiers": {
    "decreament()": "42541b8b",
    "getNumber()": "f2c9ecd8",
    "increment()": "d09de08a",
    "number()": "8381f58a",
    "setNumber(uint256)": "3fb5c1cb"
  },
  "id": 8
}