{
  "abi": [
    {
      "anonymous": false,
      "inputs": [
        {
          "indexed": true,
          "internalType": "address",
          "name": "owner",
          "type": "address"
        },
        {
          "indexed": true,
          "internalType": "address",
          "name": "spender",
          "type": "address"
        },
        {
          "indexed": true,
          "internalType": "uint256",
          "name": "id",
          "type": "uint256"
        }
      ],
      "name": "Approval",
      "type": "event"
    },
    {
      "anonymous": false,
      "inputs": [
        {
          "indexed": true,
          "internalType": "address",
          "name": "owner",
          "type": "address"
        },
        {
          "indexed": true,
          "internalType": "address",
          "name": "operator",
          "type": "address"
        },
        {
          "indexed": false,
          "internalType": "bool",
          "name": "approved",
          "type": "bool"
        }
      ],
      "name": "ApprovalForAll",
      "type": "event"
    },
    {
      "anonymous": false,
      "inputs": [
        {
          "indexed": true,
          "internalType": "address",
          "name": "from",
          "type": "address"
        },
        {
          "indexed": true,
          "internalType": "address",
          "name": "to",
          "type": "address"
        },
        {
          "indexed": true,
          "internalType": "uint256",
          "name": "id",
          "type": "uint256"
        }
      ],
      "name": "Transfer",
      "type": "event"
    },
    {
      "inputs": [
        {
          "internalType": "address",
          "name": "spender",
          "type": "address"
        },
        {
          "internalType": "uint256",
          "name": "id",
          "type": "uint256"
        }
      ],
      "name": "approve",
      "outputs": [],
      "stateMutability": "nonpayable",
      "type": "function"
    },
    {
      "inputs": [
        {
          "internalType": "address",
          "name": "owner",
          "type": "address"
        }
      ],
      "name": "balanceOf",
      "outputs": [
        {
          "internalType": "uint256",
          "name": "",
          "type": "uint256"
        }
      ],
      "stateMutability": "view",
      "type": "function"
    },
    {
      "inputs": [
        {
          "internalType": "uint256",
          "name": "id",
          "type": "uint256"
        }
      ],
      "name": "burn",
      "outputs": [],
      "stateMutability": "nonpayable",
      "type": "function"
    },
    {
      "inputs": [
        {
          "internalType": "uint256",
          "name": "id",
          "type": "uint256"
        }
      ],
      "name": "getApproved",
      "outputs": [
        {
          "internalType": "address",
          "name": "",
          "type": "address"
        }
      ],
      "stateMutability": "view",
      "type": "function"
    },
    {
      "inputs": [
        {
          "internalType": "address",
          "name": "",
          "type": "address"
        },
        {
          "internalType": "address",
          "name": "",
          "type": "address"
        }
      ],
      "name": "isApprovedForAll",
      "outputs": [
        {
          "internalType": "bool",
          "name": "",
          "type": "bool"
        }
      ],
      "stateMutability": "view",
      "type": "function"
    },
    {
      "inputs": [
        {
          "internalType": "address",
          "name": "to",
          "type": "address"
        },
        {
          "internalType": "uint256",
          "name": "id",
          "type": "uint256"
        }
      ],
      "name": "mint",
      "outputs": [],
      "stateMutability": "nonpayable",
      "type": "function"
    },
    {
      "inputs": [
        {
          "internalType": "uint256",
          "name": "id",
          "type": "uint256"
        }
      ],
      "name": "ownerOf",
      "outputs": [
        {
          "internalType": "address",
          "name": "owner",
          "type": "address"
        }
      ],
      "stateMutability": "view",
      "type": "function"
    },
    {
      "inputs": [
        {
          "internalType": "address",
          "name": "from",
          "type": "address"
        },
        {
          "internalType": "address",
          "name": "to",
          "type": "address"
        },
        {
          "internalType": "uint256",
          "name": "id",
          "type": "uint256"
        }
      ],
      "name": "safeTransferFrom",
      "outputs": [],
      "stateMutability": "nonpayable",
      "type": "function"
    },
    {
      "inputs": [
        {
          "internalType": "address",
          "name": "from",
          "type": "address"
        },
        {
          "internalType": "address",
          "name": "to",
          "type": "address"
        },
        {
          "internalType": "uint256",
          "name": "id",
          "type": "uint256"
        },
        {
          "internalType": "bytes",
          "name": "data",
          "type": "bytes"
        }
      ],
      "name": "safeTransferFrom",
      "outputs": [],
      "stateMutability": "nonpayable",
      "type": "function"
    },
    {
      "inputs": [
        {
          "internalType": "address",
          "name": "operator",
          "type": "address"
        },
        {
          "internalType": "bool",
          "name": "approved",
          "type": "bool"
        }
      ],
      "name": "setApprovalForAll",
      "outputs": [],
      "stateMutability": "nonpayable",
      "type": "function"
    },
    {
      "inputs": [
        {
          "internalType": "bytes4",
          "name": "interfaceId",
          "type": "bytes4"
        }
      ],
      "name": "supportsInterface",
      "outputs": [
        {
          "internalType": "bool",
          "name": "",
          "type": "bool"
        }
      ],
      "stateMutability": "pure",
      "type": "function"
    },
    {
      "inputs": [
        {
          "internalType": "address",
          "name": "from",
          "type": "address"
        },
        {
          "internalType": "address",
          "name": "to",
          "type": "address"
        },
        {
          "internalType": "uint256",
          "name": "id",
          "type": "uint256"
        }
      ],
      "name": "transferFrom",
      "outputs": [],
      "stateMutability": "nonpayable",
      "type": "function"
    }
  ],
  "bytecode": {
    "object": "0x608060405234801561001057600080fd5b50610e39806100206000396000f3fe608060405234801561001057600080fd5b50600436106100b45760003560e01c806342966c681161007157806342966c681461015a5780636352211e1461016d57806370a0823114610180578063a22cb465146101a1578063b88d4fde146101b4578063e985e9c5146101c757600080fd5b806301ffc9a7146100b9578063081812fc146100e1578063095ea7b31461010c57806323b872dd1461012157806340c10f191461013457806342842e0e14610147575b600080fd5b6100cc6100c7366004610b5a565b6101f5565b60405190151581526020015b60405180910390f35b6100f46100ef366004610b7e565b61022c565b6040516001600160a01b0390911681526020016100d8565b61011f61011a366004610bae565b6102a7565b005b61011f61012f366004610bd8565b610389565b61011f610142366004610bae565b61053f565b61011f610155366004610bd8565b61054d565b61011f610168366004610b7e565b610645565b6100f461017b366004610b7e565b6106a3565b61019361018e366004610c14565b610703565b6040519081526020016100d8565b61011f6101af366004610c2f565b61076e565b61011f6101c2366004610c6b565b6107da565b6100cc6101d5366004610d06565b600360209081526000928352604080842090915290825290205460ff1681565b60006001600160e01b031982166380ac58cd60e01b148061022657506001600160e01b031982166301ffc9a760e01b145b92915050565b6000818152602081905260408120546001600160a01b031661028b5760405162461bcd60e51b81526020600482015260136024820152721d1bdad95b88191bd95cdb89dd08195e1a5cdd606a1b60448201526064015b60405180910390fd5b506000908152600260205260409020546001600160a01b031690565b6000818152602081905260409020546001600160a01b0316338114806102f057506001600160a01b038116600090815260036020908152604080832033845290915290205460ff165b61032d5760405162461bcd60e51b815260206004820152600e60248201526d1b9bdd08185d5d1a1bdc9a5e995960921b6044820152606401610282565b60008281526002602052604080822080546001600160a01b0319166001600160a01b0387811691821790925591518593918516917f8c5be1e5ebec7d5bd14f71427d1e84f3dd0314c0f7b2291e5b200ac8c7c3b92591a4505050565b6000818152602081905260409020546001600160a01b038481169116146103e25760405162461bcd60e51b815260206004820152600d60248201526c333937b690109e9037bbb732b960991b6044820152606401610282565b6001600160a01b0382166104385760405162461bcd60e51b815260206004820152601860248201527f7472616e7366657220746f207a65726f206164647265737300000000000000006044820152606401610282565b6104438333836108c2565b6104805760405162461bcd60e51b815260206004820152600e60248201526d1b9bdd08185d5d1a1bdc9a5e995960921b6044820152606401610282565b6001600160a01b03831660009081526001602052604081208054916104a483610d4f565b90915550506001600160a01b03821660009081526001602052604081208054916104cd83610d66565b909155505060008181526020818152604080832080546001600160a01b038088166001600160a01b031992831681179093556002909452828520805490911690559051849391928716917fddf252ad1be2c89b69c2b068fc378daa952ba7f163c4a11628f55a4df523b3ef91a4505050565b6105498282610935565b5050565b610558838383610389565b6001600160a01b0382163b15806106015750604051630a85bd0160e11b8082523360048301526001600160a01b03858116602484015260448301849052608060648401526000608484015290919084169063150b7a029060a4016020604051808303816000875af11580156105d1573d6000803e3d6000fd5b505050506040513d601f19601f820116820180604052508101906105f59190610d7f565b6001600160e01b031916145b6106405760405162461bcd60e51b815260206004820152601060248201526f1d5b9cd85999481c9958da5c1a595b9d60821b6044820152606401610282565b505050565b6000818152602081905260409020546001600160a01b031633146106975760405162461bcd60e51b81526020600482015260096024820152683737ba1037bbb732b960b91b6044820152606401610282565b6106a081610a5a565b50565b6000818152602081905260409020546001600160a01b0316806106fe5760405162461bcd60e51b81526020600482015260136024820152721d1bdad95b88191bd95cdb89dd08195e1a5cdd606a1b6044820152606401610282565b919050565b60006001600160a01b0382166107525760405162461bcd60e51b81526020600482015260146024820152736f776e6572203d207a65726f206164647265737360601b6044820152606401610282565b506001600160a01b031660009081526001602052604090205490565b3360008181526003602090815260408083206001600160a01b03871680855290835292819020805460ff191686151590811790915590519081529192917f17307eab39ab6107e8899845ad3d59bd9653f200f220920489ca2b5937696c31910160405180910390a35050565b6107e5858585610389565b6001600160a01b0384163b158061087c5750604051630a85bd0160e11b808252906001600160a01b0386169063150b7a029061082d9033908a90899089908990600401610d9c565b6020604051808303816000875af115801561084c573d6000803e3d6000fd5b505050506040513d601f19601f820116820180604052508101906108709190610d7f565b6001600160e01b031916145b6108bb5760405162461bcd60e51b815260206004820152601060248201526f1d5b9cd85999481c9958da5c1a595b9d60821b6044820152606401610282565b5050505050565b6000836001600160a01b0316836001600160a01b0316148061090957506001600160a01b0380851660009081526003602090815260408083209387168352929052205460ff165b8061092d57506000828152600260205260409020546001600160a01b038481169116145b949350505050565b6001600160a01b0382166109825760405162461bcd60e51b81526020600482015260146024820152736d696e7420746f207a65726f206164647265737360601b6044820152606401610282565b6000818152602081905260409020546001600160a01b0316156109d85760405162461bcd60e51b815260206004820152600e60248201526d185b1c9958591e481b5a5b9d195960921b6044820152606401610282565b6001600160a01b03821660009081526001602052604081208054916109fc83610d66565b909155505060008181526020819052604080822080546001600160a01b0319166001600160a01b03861690811790915590518392907fddf252ad1be2c89b69c2b068fc378daa952ba7f163c4a11628f55a4df523b3ef908290a45050565b6000818152602081905260409020546001600160a01b031680610aac5760405162461bcd60e51b815260206004820152600a6024820152691b9bdd081b5a5b9d195960b21b6044820152606401610282565b6001600160a01b03811660009081526001602081905260408220805491929091610ad7908490610df0565b909155505060008281526020818152604080832080546001600160a01b031990811690915560029092528083208054909216909155518391906001600160a01b038416907fddf252ad1be2c89b69c2b068fc378daa952ba7f163c4a11628f55a4df523b3ef908390a45050565b6001600160e01b0319811681146106a057600080fd5b600060208284031215610b6c57600080fd5b8135610b7781610b44565b9392505050565b600060208284031215610b9057600080fd5b5035919050565b80356001600160a01b03811681146106fe57600080fd5b60008060408385031215610bc157600080fd5b610bca83610b97565b946020939093013593505050565b600080600060608486031215610bed57600080fd5b610bf684610b97565b9250610c0460208501610b97565b9150604084013590509250925092565b600060208284031215610c2657600080fd5b610b7782610b97565b60008060408385031215610c4257600080fd5b610c4b83610b97565b915060208301358015158114610c6057600080fd5b809150509250929050565b600080600080600060808688031215610c8357600080fd5b610c8c86610b97565b9450610c9a60208701610b97565b935060408601359250606086013567ffffffffffffffff80821115610cbe57600080fd5b818801915088601f830112610cd257600080fd5b813581811115610ce157600080fd5b896020828501011115610cf357600080fd5b9699959850939650602001949392505050565b60008060408385031215610d1957600080fd5b610d2283610b97565b9150610d3060208401610b97565b90509250929050565b634e487b7160e01b600052601160045260246000fd5b600081610d5e57610d5e610d39565b506000190190565b600060018201610d7857610d78610d39565b5060010190565b600060208284031215610d9157600080fd5b8151610b7781610b44565b6001600160a01b038681168252851660208201526040810184905260806060820181905281018290526000828460a0840137600060a0848401015260a0601f19601f85011683010190509695505050505050565b8181038181111561022657610226610d3956fea264697066735822122060a6a7c819e055226d86bfa149ca701ada41ea8f674a187855734b9339b44bf364736f6c63430008110033",
    "linkReferences": {}
  },
  "methodIdentifiers": {
    "approve(address,uint256)": "095ea7b3",
    "balanceOf(address)": "70a08231",
    "burn(uint256)": "42966c68",
    "getApproved(uint256)": "081812fc",
    "isApprovedForAll(address,address)": "e985e9c5",
    "mint(address,uint256)": "40c10f19",
    "ownerOf(uint256)": "6352211e",
    "safeTransferFrom(address,address,uint256)": "42842e0e",
    "safeTransferFrom(address,address,uint256,bytes)": "b88d4fde",
    "setApprovalForAll(address,bool)": "a22cb465",
    "supportsInterface(bytes4)": "01ffc9a7",
    "transferFrom(address,address,uint256)": "23b872dd"
  },
  "id": 9
}